:100000000C946E080C94B5080C94B5080C94662FEB
:100010000C94B5080C94B5080C94B5080C94B5086C
:100020000C94B5080C94B5080C94CF210C940B21BA
:100030000C941F290C94B5080C94B5080C94B508C1
:100040000C94B5080C94B5080C94B5080C94B5083C
:100050000C94B5080C94D2280C94B5080C94B508EF
:100060000C94B5080C94B5080C94B5080C94B5081C
:100070000C94B5080C94B5080C94B5080C94B5080C
:100080000C94B5080C94B5080C94B5080C94B508FC
:100090000C94B5080C94B5080C94B5080C94B508EC
:1000A0000C94B5080C94B5080C94B5082D0D2D0DC5
:1000B000670D670DBE0DDA0D700F700FE50DC30EE5
:1000C000D40ED40EDD13E013E313E613E913EC139F
:1000D000EF13261F4D1FE3204D1FE320951FB81F70
:1000E000E320A720BA208D248D24A024A0249624C8
:1000F000A024A024A0248D248D249B24A024A0240B
:100100009B2400DA1281FFD9F1DB20A4A62EAF00D8
:10011000A0C000A1C800AED580A83FD300408D1478
:10012000200000000000000000000000000000802F
:1001300080C0E0F07078383C1C1E0E0E0E070707DA
:10014000070707070707070707070707070E0E0E2A
:100150001E1C3C387870F0E0C08080000000000079
:10016000000000000000000000000000000000008F
:10017000000000000000000000000000000000007F
:10018000000000000000000000000000000000006F
:10019000000000000000000000000000000000005F
:1001A000000000000000000000C0E0F07C3E1F0FD7
:1001B00007030180C0E0F078383C1C1E0E0E0707D4
:1001C00087E77F1FFFFF1F7FE78707070E0E1E1CB5
:1001D0003C3878F0E0C0800103070F1F3E7CF0E060
:1001E000C00000000000000000000000000000004F
:1001F00000000000000000000000000000000000FF
:1002000000000000000000000000000000000000EE
:1002100000000000000000000000000000000000DE
:10022000000000000000F0FCFF1F07010000C0F00C
:10023000FCFEFFF7F3B1B03030303030303078FEB4
:1002400087010000FFFF00000187FE78303030306A
:10025000303030B0B1F3F7FFFEFCF0C00000010712
:100260001FFFFCF000000000000000000000000084
:10027000000000000000000000000000000000007E
:10028000000000000000000000000000000000006E
:10029000000000000000000000000000000000005E
:1002A0000000000000FFFFFF0000000000FEFFFF55
:1002B0000101071E78E181838386868C8C9898B132
:1002C000B7FEF8E0FFFFE0F8FEB7B198988C8C8697
:1002D00086838381E1781E070101FFFFFE00000095
:1002E0000000FFFFFF00000000FFFF0000C0C03063
:1002F000300000F0F0000000000000F0F00000F01E
:10030000F0C0C030303030C0C000003030F3F300F7
:100310000000000000303030303030C0C00000003D
:100320000000000000FFFFFF00000000007FFFFF53
:100330008080E0781E8781C1C16161313119198DDA
:10034000ED7F1F07FFFF071F7FED8D191931316109
:1003500061C1C181871E78E08080FFFF7F000000BF
:100360000000FFFFFF000000003F3F03030C0C30C4
:1003700030000000003333333333330F0F00003FBE
:100380003F0000000000000000000030303F3F3020
:100390003000000C0C3333333333333F3F00000065
:1003A0000000000000000F3FFFF8E0800000030F96
:1003B0003F7FFFEFCF8D0D0C0C0C0C0C0C0C1E7F37
:1003C000E1800000FFFF000080E17F1E0C0C0C0CA0
:1003D0000C0C0C0D8DCFEFFF7F3F0F03000080E072
:1003E000F8FF3F0F000000000000000000000000C8
:1003F00000000000000000000000000000000000FD
:1004000000000000000000000000000000000000EC
:1004100000000000000000000000000000000000DC
:1004200000000000000000000003070F3E7CF8F011
:10043000E0C0800103070F1E1C3C38787070E0E0BC
:10044000E1E7FEF8FFFFF8FEE7E1E0E070707838E2
:100450003C1C1E0F07030180C0E0F0F87C3E0F0734
:100460000300000000000000000000000000000089
:10047000000000000000000000000000000000007C
:10048000000000000000000000000000000000006C
:10049000000000000000000000000000000000005C
:1004A000000000000000000000000000000000014B
:1004B0000103070F0E1E1C3C3878707070E0E0E0FE
:1004C000E0E0E0E0E0E0E0E0E0E0E0E0E07070707C
:1004D00078383C1C1E0E0F070301010000000000CD
:1004E000000000000000000000000000000000000C
:1004F00000000000000000000000000000000000FC
:1005000000000000000000000000000000000000EB
:1005100000000000000000000000000000000000DB
:10052000000020202020202020005343524C434B29
:10053000200020202020202020004341504C434B0D
:10054000200020202020202020004E554D4C434BE1
:100550002000556E646566696E65640A0041646AD0
:100560007573740A0046756E6374696F6E0A005382
:10057000796D0A004E61760A00436F6C656D616BA0
:100580002D44480A0044766F72616B0A005157454A
:100590005254590A004C617965723A20004B7972C5
:1005A000696120726576312E300A0A00808182836B
:1005B0008485868788898A8B8C8D8E8F9091929383
:1005C00094A0A1A2A3A4A5A6A7A8A9AAABACADAECE
:1005D000AFB0B1B2B3B4C0C1C2C3C4C5C6C7C8C945
:1005E000CACBCCCDCECFD0D1D2D3D4000501090215
:1005F000A10185020901A1000509190129081500B9
:10060000250195087501810205010930093115811F
:10061000257F95027508810609381581257F95018A
:1006200075088106050C0A38021581257F9501752C
:10063000088106C0C005010980A101850319012AAE
:10064000B700150126B700950175108100C0050C93
:100650000901A101850419012AA002150126A002A1
:10066000950175108100C005010906A10105071952
:10067000E029E715002501950875018102950175AE
:100680000881010507190029FF150026FF009506BE
:100690007508810005081901290595057501910264
:1006A000950175039101C009023B00020100A0FA07
:1006B00009040000010301010009211101000122C8
:1006C00040000705810308000A0904010001030036
:1006D0000000092111010001227B0007058203208F
:1006E000000A12010002000000081D8D9D9D0100FE
:1006F000010200010C034B007900720069006100E7
:1007000000001003730070006C00690074004B005F
:10071000420000000403090407087F0807003E5B4D
:100720004F5B3E003E6B4F6B3E001C3E7C3E1C0010
:10073000183C7E3C18001C577D571C001C5E7F5ED9
:100740001C0000183C180000FFE7C3E7FF0000187A
:1007500024180000FFE7DBE7FF0030483A060E00F0
:10076000262979292600407F05050700407F0525B9
:100770003F005A3CE73C5A007F3E1C1C0800081C06
:100780001C3E7F0014227F2214005F5F005F5F0029
:1007900006097F017F00006689956A0060606060DD
:1007A000600094A2FFA2940008047E0408001020B8
:1007B0007E20100008082A1C0800081C2A080800CF
:1007C0001E10101010000C1E0C1E0C0030383E388D
:1007D0003000060E3E0E0600000000000000000083
:1007E0005F000000000700070000147F147F140062
:1007F000242A7F2A120023130864620036495620F7
:100800005000000807030000001C224100000041C6
:10081000221C00002A1C7F1C2A0008083E08080031
:1008200000807030000008080808080000006060C0
:1008300000002010080402003E5149453E000042DD
:100840007F4000007249494946002141494D33002B
:100850001814127F10002745454539003C4A494984
:1008600031004121110907003649494936004649FE
:1008700049291E0000001400000000403400000060
:10088000000814224100141414141400004122140E
:1008900008000201590906003E415D594E007C12D4
:1008A00011127C007F49494936003E4141412200F6
:1008B0007F4141413E007F49494941007F09090983
:1008C00001003E41415173007F0808087F0000414C
:1008D0007F4100002040413F01007F081422410079
:1008E0007F40404040007F021C027F007F040810D0
:1008F0007F003E4141413E007F09090906003E411B
:1009000051215E007F0919294600264949493200D4
:1009100003017F0103003F4040403F001F20402073
:100920001F003F4038403F00631408146300030475
:10093000780403006159494D4300007F4141410063
:10094000020408102000004141417F00040201021E
:1009500004004040404040000003070800002054CD
:10096000547840007F2844443800384444442800E8
:10097000384444287F0038545454180000087E0935
:10098000020018A4A49C78007F08040478000044A6
:100990007D4000002040403D00007F1028440000C2
:1009A00000417F4000007C04780478007C08040447
:1009B0007800384444443800FC18242418001824D3
:1009C0002418FC007C0804040800485454542400F3
:1009D00004043F4424003C4040207C001C20402074
:1009E0001C003C4030403C004428102844004C90FF
:1009F00090907C004464544C440000083641000050
:100A000000007700000000413608000002010204E7
:100A100002003C2623263C0000000000000040406D
:100A200040F0F8F8FF38FFF8F83FF8F8FF38FFF823
:100A3000F8F040404000000000000080C0C0C080CE
:100A40000000C0C08000000080C0C000C0C0000026
:100A500080C0C00000000000C0C0C0C0C000C0C056
:100A60000000000000000000000000000000000086
:100A70000000000000000000000000000000000076
:100A80000000000000000000000000000000000066
:100A900000000000000000C0F0F8FC3E1E0601004F
:100AA00000007F4141417F007F4141417F00008044
:100AB000C0E07E5B4F5BFEC00000C000DCD7DEDE26
:100AC000DED7DC00C00000000000000000000000D5
:100AD0000000000000000000000000000000494984
:100AE00049FFFFFFFFE0DFBFBF00BFBFDFE0FFFF49
:100AF000FFFF49494900000000001F3F6060E0BF60
:100B00001F007F7F071E381E077F7F007F7F0E1F1D
:100B10003B716000000000007F7F0C0C0C007E7EAB
:100B2000007F7E0303007F7E03037E7E03037F7EC0
:100B3000000F3E703C063C703E0F00327B49493F3F
:100B40007E007F7E0303001E3F69696F2600000060
:100B500000000000000000030F1F3F3C78706000A1
:100B600000007F4141417F007F4141417F00307B58
:100B70007F7830202030787F3B0003000F7F0F0FFD
:100B80000F7F0F00030000000000000000000000C5
:100B90000000000000000000000000000000010153
:100BA00001070F0F7F0F7F0F0F7E0F0F7F0F7F0F3C
:100BB0000F0701010100000000000000000000011B
:100BC0000100000000000000000000000000000024
:100BD0000000000000000000000000000000000015
:100BE0000000000000000000000000000000000005
:100BF00000000000000000000000000000000000F5
:100C000000000000000000000000000000000000E4
:100C100000000000000000000000000000000000D4
:100C200000000000000000000000000000000000C4
:100C300000000000000000000000000000000000B4
:100C400000000000000000000000000000000000A4
:100C50000000000000000000000000001700150068
:100C600008001A0014002B00000000000A00090010
:100C700007001600040029614C002F000500190030
:100C800006001B001D00E100280003510000E200E7
:100C9000E300000000000000000000001C0018003D
:100CA0000C00120013002A00000000000B000D00D1
:100CB0000E000F0033003400055130001100100009
:100CC000360037003800E5002C0004510000E60033
:100CD0006500000000000000000000001C00130080
:100CE0003700360034002B00000000000C00180014
:100CF000080012000400296139002F001B000E00BB
:100D00000D0014003300E10003512C002864E300BF
:100D100006510000000000000000000009000A0069
:100D2000060015000F002A000000000007000B005D
:100D30001700110016002D7105513000050010003C
:100D40001A0019001D00E50004512C00E600E70020
:100D50006500000000000000000000000500130016
:100D600009001A0014002B00000000000A00170000
:100D7000160015000400296139002F001900070032
:100D800006001B001D00E10003512C002864E30055
:100D90000651000000000000000000000D000F00E0
:100DA00018001C0033002A00000000001000110091
:100DB00008000C0012003471055130000E000B00C9
:100DC000360037003800E50004512C00E600E7004B
:100DD00065000000000000000000000001000100AC
:100DE0000100010001000100000000000100E1001D
:100DF000E000E200E3000100470001000100010003
:100E000001000100010001000100010001000100DA
:100E10000100000000000000000000004B004D0039
:100E20004A004E00A9004C00000000005000510094
:100E300052004F00AA004900010001004800AC0028
:100E4000AE00AB00A8004600010001000100010057
:100E5000010000000000000000000000220021004E
:100E600020001F001E0035000000000022022102A9
:100E700020021F021E02350201002F022F002D004A
:100E80003300330231003102010001000100010092
:100E9000010000000000000000000000230024000A
:100EA0002500260027002E00000000002302240257
:100EB0002502260227022E020100300230002D02F8
:100EC000360037003800380201000100010001003F
:100ED00001000000000000000000000001004500CB
:100EE00044004300420001000000000001004100F6
:100EF00040003F003E0001000100010001003D00F4
:100F00003C003B003A00010001000100010001002B
:100F100001000000000000000000000001000100CE
:100F20000100010001000100000000000100E500D7
:100F3000E400E200E70001000100010001000100FF
:100F40000100010001000100010001000100010099
:100F5000010000000000000000000000010001008E
:100F6000005201000100010000000000010001002A
:100F70000152010001000100010001000100010017
:100F80000252010001000100010001000100010006
:100F9000010000000000000000000000010001004E
:100FA000010001000100010000000000C35CC85CFA
:100FB000C65CCA5CC45C0100010001000100C95CA0
:100FC000C75CCB5CC55C01000100010001000100B1
:100FD0000100000000000000000101010101010109
:100FE00001010202020202020202020303030303DE
:100FF00003030304040404040404050505050506AD
:10100000060606060707070707080808080909096A
:10101000090A0A0A0B0B0B0C0C0C0D0D0D0E0E0E13
:101020000F0F0F10101111111212131314141515A4
:1010300016161717181819191A1A1B1B1C1D1D1E16
:101040001E1F20202122222324242526262728296A
:10105000292A2B2C2D2D2E2F303132323334353698
:101060003738393A3B3C3D3E3F4041424344454698
:101070004748494A4C4D4E4F505153545556585974
:101080005A5B5D5E5F616264656668696B6C6D6F1B
:101090007072737577787A7B7D7E8082838587888E
:1010A0008A8C8E8F91939596989A9C9EA0A2A3A5C8
:1010B000A7A9ABADAFB1B3B5B7BABCBEC0C2C4C6C9
:1010C000C9CBCDCFD1D4D6D8DBDDDFE2E4E7E9EB85
:1010D000EEF0F3F5F8FAFDFF00AF00AE11241FBEED
:1010E000CFEFDAE0DEBFCDBF04B603FE27C08091AC
:1010F0006D0790916E07A0916F07B09170078730D0
:10110000904BA740B04BD1F410926D0710926E0730
:1011100010926F071092700714BE84B7877F84BF48
:101120000FB6F894A8958091600088618093600064
:10113000109260000FBEE0E0F8E3099511E0A0E036
:10114000B1E0E0E1F3E602C005900D92A63CB107E4
:10115000D9F727E0A6ECB1E001C01D92AD36B20789
:10116000E1F70E947B100C9486310C9400008823D8
:1011700009F463C0823869F40E949B2981FF5DC035
:1011800069E388E996E00E9455290E94262369E3D5
:101190000EC0833891F40E949B2980FF4EC063E506
:1011A00088E996E00E9455290E94262363E588E994
:1011B00096E00E9448290C942623843869F40E9402
:1011C0009B2982FF3AC067E488E996E00E9455298E
:1011D0000E94262367E4EBCF9CEF980F913A10F41E
:1011E000682FE5CF90E2980F983088F4877021E05F
:1011F00030E0A90102C0440F551F8A95E2F7CA01E9
:10120000809590910307892380930307D4CF9BE5B2
:10121000980F933020F480E090E00C94852998E5B5
:10122000980F973120F480E090E00C946F298D3E68
:1012300020F00E94762C0C948A2D0895CF93882359
:1012400009F49EC0C82F8238B1F40E949B2981FD09
:1012500097C069E388E996E00E9455290E942623F9
:101260002FEF81EE94E0215080409040E1F700C0E4
:10127000000069E317C08338E1F40E949B2980FDD8
:101280007FC063E588E996E00E9455290E942623E5
:101290002FEF81EE94E0215080409040E1F700C0B4
:1012A000000063E588E996E00E944829CF910C94FC
:1012B00026238438B1F40E949B2982FD61C067E433
:1012C00088E996E00E9455290E9426232FEF81EE9F
:1012D00094E0215080409040E1F700C0000067E4B6
:1012E000E1CF8CEF8C0F813A80F4EAE9F6E080EAF6
:1012F00096E02191C217E1F18E179F07D1F76C2F6D
:1013000088E996E00E945529D1CF80E28C0F883081
:1013100068F4C77081E090E001C0880FCA95EAF7D1
:1013200090910307892B80930307C0CFEBE5EC0F67
:10133000E33040F4F0E0E057FE4F808190E0CF9141
:101340000C948529E8E5EC0FE73150F4F0E0EE0F5E
:10135000FF1FED56FE4F80819181CF910C946F2934
:10136000CD3E70F08C2F0E942F2DCF910C948A2DA2
:101370006C2F88E996E00E9448290E942623BFCF5F
:10138000CF9108951F93CF93DF93CDB7DEB76797C3
:101390000FB6F894DEBF0FBECDBF4B8B5C8B6D8B51
:1013A0007E8B8F8B61111092020786E09E01235F76
:1013B0003F4FD901E82F1D92EA95E9F795E0FE012C
:1013C0007396D90101900D929A95E1F79C894E8907
:1013D0005F897B897D879E876F87598B488BF90151
:1013E000DE01179601900D928A95E1F7CE010796DE
:1013F0000E94A42481113EC086E0FE013796DE01E2
:10140000119601900D928A95E1F7FF81E8856A8532
:101410007B856115710531F0EF3F31F481E0FF3FCD
:1014200019F403C081E001C080E080FD23C0209159
:10143000CE0630E0C9010196877099274091FF06DA
:1014400050E08417950779F1F983EA837D836C83F3
:1014500096E0929FD001939FB00D1124A153B94FF4
:10146000FE01319601900D929A95E1F78093CE0698
:101470000E948A2316E08091FF069091CE0689177C
:10148000F9F0189FC00111248153994F0E94A424A0
:101490008823B1F08091FF0690E00196877099272C
:1014A0008093FF06E8CF0E9413271092CE06109279
:1014B000FF06E8ECF6E086E0DF011D928A95E9F789
:1014C00067960FB6F894DEBF0FBECDBFDF91CF9108
:1014D0001F9108958F929F92AF92BF92CF92DF9209
:1014E000EF92FF920F931F93CF93DF93CDB7DEB7A9
:1014F0002A970FB6F894DEBF0FBECDBFFC01D08097
:10150000118183819481892B39F01F3F39F491E057
:101510000FEFD01203C003C091E001C090E090FD36
:10152000BCC57F0185E0DE01169601900D928A957B
:10153000E1F7F70122818E819F81222349F00E94E9
:101540000024082F682F8E819F810E94712603C07E
:101550000E944526082FE12FF0E018E0019FE00DE2
:10156000F11D112463E0EE0FFF1F6A95E1F7ED0D09
:10157000F11DEE0FFF1FE85AF34F05911491043F40
:101580002CE5120759F190F4093D8CE51807E9F0B4
:101590000A3D9CE51907A1F1083DECE51E07B1F5F0
:1015A00006E221EE41EE68ED7CE514C0063FFCE565
:1015B0001F0701F1C8F0073F3CE5130739F507E2C3
:1015C00025EE46EE67EF7CE505C007E225EE45EE29
:1015D00069ED7CE5C7010E94AB29CBC406E221EE90
:1015E00040EE64EF7CE5F6CF07E225EE44EE65EFD2
:1015F0007CE5F0CF06E221EE42EE66EF7CE5EACF35
:1016000008E221E045EE6AED7CE5E4CFF701828156
:10161000882309F445C1109251070430FDE51F07E6
:1016200058F40B3F2CE5120760F4C80182509C452A
:10163000449708F01FC105C002363DE5130709F0C5
:1016400019C10E94A4229093CE018093CD01003154
:101650008CE5180709F4CAC008F041C00830ECE571
:101660001E0709F4A4C0F0F404302CE5120709F4B5
:101670008CC068F402308CE5180709F482C003308E
:101680001C4509F0E7C08091CD018260E1C00630C1
:10169000ECE51E0709F483C008F085C08091CD01F8
:1016A0008860D6C00C302CE5120709F490C068F4AD
:1016B0000A308CE5180709F47EC008F084C00E9447
:1016C00013278091CD018068C3C00E30ECE51E0762
:1016D00009F481C008F086C08091CD0194C00D3F0F
:1016E0002CE5120709F47BC038F504318CE51807A6
:1016F00009F49AC058F40231ECE51E0709F47AC0E7
:1017000008F07EC08091CD018F7BA2C00B3F2CE5FD
:101710001207F1F108F03FC005311C4509F09AC0ED
:101720008091CD0182FB222720F991E0922790FB46
:1017300082F990FB83F98CC001309DE5190709F40B
:1017400067C050F48091CE010F3FFCE51F07C1F147
:1017500008F05BC08D7F65C003303DE5130709F4D9
:1017600071C008F46DC002361D4509F073C0809148
:10177000CD0184FB222720F991E0922790FB84F988
:1017800067C08091CD01816063C08091CD0116C09A
:101790008091CE0116C08091CE01826042C08091BE
:1017A000CD01806155C08091CD01806251C0809192
:1017B000CD0180644DC08091CD018860846048C0B7
:1017C000826081602EC08091CD018E7F41C080916A
:1017D000CD018D7F3DC08091CD01877F39C0809143
:1017E000CE0114C08091CD018F7E32C08091CD0199
:1017F0008F7D2EC00E9413278091CD018F7728C046
:101800008091CD01877F8B7F23C08D7F8E7F09C024
:101810008091CE01982F909591708E7F892B90FBAF
:1018200081F98093CE0116C00E9413278091CD01CB
:1018300087FB222720F991E0922790FB87F908C0C7
:1018400061E001C060E08EE090E00E94163102C0CD
:101850008093CD016091CD011091CE0184E090E0A4
:101860000E941631612F82E290E00E9416310E94A0
:1018700013277FC306312CE5120721F5809103075A
:101880008A7A91E009F490E09093C801882311F0DE
:1018900065E301C069E288E996E00E9455290FC01E
:1018A0000631FCE51F0709F064C08091C801882358
:1018B00009F47EC365E388E996E00E9448290E9406
:1018C000262357C30B352DE5120709F44CC058F4F5
:1018D00001158CE51807C1F00F3D1C4509F065C0E6
:1018E0000E94B52246C30C35EDE51E0709F43DC044
:1018F0000D351D4509F059C08091CE0182FB882726
:1019000080F991E0892732C00E9413270FEF14E37A
:101910002CE0015010402040E1F700C0000081E0C1
:101920008093E00080E28093D8001092C9008FE19C
:101930009EE40197F1F700C0000087E090EBDC0126
:1019400080936D0790936E07A0936F07B093700715
:101950009CE088E10FB6F894A895809360000FBED4
:1019600090936000FFCF81E001C080E00E9470236F
:101970001CC08091030782720A3CECE51E0709F443
:1019800076C308F0ECC2063C2CE5120709F460C3EC
:1019900008F010C3043C9CE5190709F44FC308F094
:1019A00052C3033C1C4509F421C3F7018281008125
:1019B0001181882349F0C8010E940024D82E682F85
:1019C000C8010E94712604C0C8010E944526D82E75
:1019D000E12FF0E018E0D19EE00DF11D112433E07D
:1019E000EE0FFF1F3A95E1F7E00FF11DEE0FFF1F1D
:1019F000E85AF34F859194910E9454198C01982EC6
:101A0000F701D280A580A2945FE0A5228091000713
:101A1000877099F0DD2089F0812F807F803421F05C
:101A200080E2800F883048F082E00E94CB268091CF
:101A300000078770CC24C3948111C12CB12EB294BD
:101A40002FE0B2228B2D90E08C30910508F048C237
:101A5000FC01EA5AFF4F0C946A31812F807F1F707E
:101A6000882311F01295107FDD20B9F0112309F4BD
:101A700022C280E2800F883010F0911006C0809161
:101A80000307182B1093030705C080910207182B3A
:101A9000109302070E9426230EC2802F0E94B708CF
:101AA000112309F41DC2005E1095083010F091104A
:101AB00006C08091030718231093030705C0809187
:101AC00002071823109302070E94262309C2812FC0
:101AD000807F1F70803211F01295107F992021F0C5
:101AE000F1E09F1601F12EC0DD20A1F080910407E6
:101AF000AA2071F001E0A0120BC0182B9091CE012A
:101B000092FDEEC1181709F4EBC110930407E8C168
:101B1000812B10C0AA2021F021E0A21609F4E0C117
:101B20000E94202327C0DD2041F035E03A1508F45B
:101B3000D7C1812F0E942927D3C184E08A1508F4D8
:101B4000CFC118C0DD2049F0AA2099F3F7018581A3
:101B500080FFB1C18F708583ECCFAA2059F0093383
:101B600009F0BBC1FFEF17EE23E0F1501040204019
:101B7000E1F7B1C1812F0E941E27B2C1812F869546
:101B80008695837019F0813059F0AAC1DD2019F0D3
:101B9000C801937002C080E090E00E948529A6C130
:101BA000DD2019F0C801937002C080E090E00E942F
:101BB0006F299CC1802FDD2019F00E942F2D02C0BB
:101BC0000E94762C0E948A2D91C1812F837009F08A
:101BD00069C0D11089C1902F929596959770990FF1
:101BE000990F802F8F70882E912CA12CB12C092E4B
:101BF00004C0880C991CAA1CBB1C0A94D2F704FFD1
:101C000012C04FE050E060E070E004C0440F551F88
:101C1000661F771F9A95D2F7DB01CA0180959095D0
:101C2000A095B09503C080E090E0DC011695169574
:101C3000412F4370423019F1C8F40091E80110912E
:101C4000E9012091EA013091EB01413059F08829F6
:101C50009929AA29BB29BC01CD01602371238223C4
:101C600093230AC0802A912AA22AB32ABC01CD015B
:101C7000682979298A299B290E94092735C1882941
:101C80009929AA29BB290091E8011091E901209125
:101C9000EA013091EB01BC01CD0160277127822759
:101CA0009327EACFDD2019F0812F817001C086953E
:101CB000882309F419C1902F929596959770990FE2
:101CC000990F802F8F70882E912CA12CB12C092E6A
:101CD00004C0880C991CAA1CBB1C0A94D2F704FFF0
:101CE00012C04FE050E060E070E004C0440F551FA8
:101CF000661F771F9A95D2F7DB01CA0180959095F0
:101D0000A095B09503C080E090E0DC011695169593
:101D1000412F43704230D9F068F50091EC011091E9
:101D2000ED012091EE013091EF01413059F0882909
:101D30009929AA29BB29BC01CD01602371238223E3
:101D400093231EC0802A912AA22AB32A13C088296D
:101D50009929AA29BB290091EC011091ED0120914C
:101D6000EE013091EF01BC01CD0160277127822780
:101D7000932706C0BC01CD01682979298A299B29AE
:101D80000E949C26B1C01F70DD2039F0812F0E9477
:101D9000E826802F0E942927A7C0802F0E941E2797
:101DA000812F0E94A626A0C0802F32EF931609F43F
:101DB00040C0391538F090EF991661F0E1EF9E16AA
:101DC00099F174C0F3EF9F16D9F124EF921609F43C
:101DD0004EC06CC0DD2019F134E03A1508F480C023
:101DE0001F7181E090E0A0E0B0E0AC01BD0104C053
:101DF000440F551F661F771F1A95D2F78091EC018B
:101E00009091ED01A091EE01B091EF018A019B014B
:101E1000082719272A273B27C901B80125C025E033
:101E20002A1508F45DC0DCCFDD2029F0812F8F71E9
:101E300030C0DD20D9F3812F8F710E94A62650C0BB
:101E4000DD2079F01F7181E090E0A0E0B0E0BC01FE
:101E5000CD0104C0660F771F881F991F1A95D2F70E
:101E600003C060E070E0CB010E949C2639C0DD20F9
:101E700099F01F71812F0E94E8268091CE0182FD8A
:101E800007C038E0139FC0011124836080930007CE
:101E9000812F0E94E82624C081E00E94CB2681E0A9
:101EA0008A15F0F482E00E94CB261AC0DD2039F0BA
:101EB000AA2009F4BBCF802F0E941E0911C0AA20BE
:101EC00009F4B9CF893349F49FEFE7EEF3E091507D
:101ED000E040F040E1F700C00000802F0E94B7080A
:101EE00088EF8B0D843010F40E949B29CC20A9F040
:101EF0008091000780FD11C0F701128285958595BC
:101F000085950E94E826C7010E946A0A8091000711
:101F10008595859585950E94A62685E0F701DE01C9
:101F2000119601900D928A95E1F789819A810E941C
:101F30004526EA81F0E008E0809FE00DF11D1124C4
:101F400083E0EE0FFF1F8A95E1F78981E80FF11D0D
:101F5000EE0FFF1FE85AF34F859194919EC00E3CFF
:101F60009CE5190709F494C088F1073D3CE5130787
:101F7000C8F580910007877009F48FC0F70182814E
:101F8000882309F48AC082E02A960FB6F894DEBF4F
:101F90000FBECDBFDF91CF911F910F91FF90EF90BA
:101FA000DF90CF90BF90AF909F908F900C94CB26F6
:101FB00069E281CC083C2CE5120709F44EC008F018
:101FC00051C049E05CE260E07CE25FC00C3CFCE5B3
:101FD0001F0709F451C008F054C04CED5BE260EDFE
:101FE0007BE253C00E351D4521F2DFCC80914407C2
:101FF00080FF1EC08E7F80934407609144077091DC
:10200000450780914607909147070E941D2C8091BB
:1020100007078160809307079FEFE0E7F2E09150A8
:10202000E040F040E1F700C000000E94962AA1CFF6
:1020300081608093440761E086952CC042E55CE2B4
:102040006BE57CE222C04BE55CE262E57CE21DC010
:1020500040E05CE269E07CE218C048EE5BE264EFDD
:102060007BE213C044EF5BE268EE7BE20EC040ED22
:102070005BE26CED7BE209C04BEC57E26CED77E282
:1020800004C04CED57E26BEC77E20E94902A71CFCE
:1020900061E081E00E942F2C6CCF2A960FB6F89455
:1020A000DEBF0FBECDBFDF91CF911F910F91FF908B
:1020B000EF90DF90CF90BF90AF909F908F9008955A
:1020C00081110AC0662321F060E070E089EA0FC048
:1020D00060E070E08AEA0BC0813059F4662321F099
:1020E00060E070E08EE403C060E070E08BE40E948A
:1020F000332781E00895CF93DF93CDB7DEB76297A2
:102100000FB6F894DEBF0FBECDBF84B7877F84BF04
:102110000FB6F894A8958091600088618093600064
:10212000109260000FBE90E080E80FB6F8948093A4
:102130006100909361000FBE85B7806885BF85B749
:10214000806885BF8EE696E19093C7018093C601B3
:102150000E944F210E946E218091E2008460809352
:10216000E2007894809183028823A1F01091E90025
:102170001F709091EC00892F817090FD80E8182BE2
:102180001092E9008091E80083FD0E94421E1F70BA
:102190001093E90082E084BD93E095BD9AEF97BD6E
:1021A00080936E001092C9011092CA011092CB0167
:1021B0001092CC010E94A818809300018091000128
:1021C000882321F010925B018AE003C08AE08093AB
:1021D0005B0180935C010E94A81881110E94202F4E
:1021E0008091000180910001811102C094E001C042
:1021F00090E09093D80184E0891B8093D70100E69A
:1022000011E0F4E6EF2EF1E0FF2ED8018D918D0163
:102210008F3F11F00E943D19E016F106B1F708E674
:1022200011E0E0E7EE2EE1E0FE2EF80181918F0152
:102230008F3F11F00E943D19E016F106B1F7EFEC67
:10224000F1E087ED91E0ABEDB1E011921D928E17B8
:102250009F07D9F780E090E00E941031893E9E4FA1
:1022600011F00E94B52282E090E00E94023180933A
:1022700035020E94A4229093CE018093CD0183E089
:1022800090E00E940231682F70E080E090E00E94B0
:1022900009270E94A818811102C00E94232F82E002
:1022A0008093300280E880938D020E94B42D6DE00F
:1022B00070E085E191E00E94ED1D892B09F043C09B
:1022C0008091300263E070E081FD3AC082E191E0EC
:1022D0000E94ED1D892BB9F56DE070E082E091E080
:1022E0000E94ED1D892B79F50E940729DC01CB01A5
:1022F000805A9541AF4FBF4F8093490790934A074B
:10230000A0934B07B0934C07E0E9F2E080E094E043
:10231000DF018C011D9201501040E1F7F093970608
:10232000E09396068FEF9FEF90938F0280938E023B
:1023300081E080934E0780934D071092310203C0D5
:102340008FE091E0C5CF8091D901811139C080E043
:1023500090E00E941031893E9E4F21F00E94B522EC
:102360000E945F2C88E090E00E940A31609344074D
:10237000709345078093460790934707809107071E
:102380008360809307076E7F71F40E945F2C88E062
:1023900090E00E940A316093440770934507809350
:1023A0004607909347070E94122C8091440780FFB4
:1023B00004C060E086950E942F2C81E08093D901B3
:1023C00080910001811106C085E380930C0186E6AF
:1023D00080930B0120910C01E22FE295EF70F0E069
:1023E00031A12F7081E090E0AC01022E01C0440FBA
:1023F0000A94EAF7542F5095352331A332A1432B89
:1024000042A340910B01A42FA295AF70B0E091962A
:102410003C9191974F70042E01C0880F0A94EAF7FF
:10242000982F9095932391969C93919792969C9137
:102430009297892B92968C93929780A190E002C0FC
:10244000959587952A95E2F7817090962C9130E0CA
:1024500002C0359527954A95E2F720FD02C090E02D
:1024600001C092E0892B8093E7019091000181E007
:1024700098279093E601891B8093DA0181E091E02F
:10248000909355078093540760E4C62E8824839464
:10249000912C80918302853009F044C000E112E163
:1024A00080918302853009F039C0809183028430A5
:1024B00019F11092580728E130E00FB6F894A8956A
:1024C000209360000FBEC092600083B7817F84605C
:1024D00083BF83B7816083BF7894889583B78E7FED
:1024E00083BF0FB6F894A8958091600088618093AF
:1024F0006000109260000FBE80918202882309F470
:10250000CFCF0E94461BEBEDF1E081918111C6C354
:1025100063EE71E06E177F07C1F7C2CF0E941327E9
:102520000E949B290E94461BB82E81110E940729F8
:10253000A6E3B2E0EBEDF1E000E010E0A02ED190D8
:102540008D918D2509F454C0E12CFF24F394982F2C
:102550009F2109F448C00E94A818882399F0EF82AF
:10256000A886DF2081E009F480E089870E94132992
:102570008160782F9B878A874F81588569858B85F5
:102580000E94C209F801EA5CFD4F8081F826F082C2
:10259000E091E7015E2F550F550F20910C01E22FBE
:1025A000E295EF70F0E080A190E02F7002C0959569
:1025B00087952A95E2F78170992740910B01E42FC6
:1025C000E295EF70F0E020A130E04F7002C0359549
:1025D00027954A95E2F7F901E170FF2720FF1FC018
:1025E000E2E0F0E01CC0E394FF0C78E0E712AFCF2C
:1025F0000F5F1F4F0830110509F0A0CF8FEF8C87B8
:102600008D871E860E9413298160782F988B8F8773
:102610004C855D856E8588890E94C209B9CFE82BFB
:10262000F92BE52BE093E7011091E601EF70F0E064
:10263000E059FE4F90818091E501890F8093E5017B
:10264000843074F0E12FF0E0ED51FE4F80818F5F18
:10265000808360E0812F0E946010DD24D39401C04C
:10266000D12C8091E5018D3F6CF4E12FF0E0ED512C
:10267000FE4F80818150808361E0812F0E94601035
:10268000DD24D3948091E501082E000C990B64E0C1
:1026900070E00E9456318093E501D1100E94EE1A3D
:1026A00080914E07882309F405C2809132029091EF
:1026B00033020E94F828C29708F4FBC00E94132935
:1026C000909333028093320280E992E090939706D0
:1026D000809396060E94A818882309F4ABC08CEA60
:1026E00095E00E94DF1D8DE995E00E94DF1D85E9E0
:1026F00095E00E94DF1D4091EC015091ED01609149
:10270000EE017091EF018091E8019091E901A091B3
:10271000EA01B091EB01842B952BA62BB72BAD01D1
:1027200066277727411551056105710521F0DB0109
:10273000CA01E0E101C0E0E0492F5A2F6B2F772753
:10274000411551056105710519F0E85FDB01CA010A
:10275000AC01BD0134E076956795579547953A955C
:10276000D1F7411551056105710519F0EC5FDB01E9
:10277000CA01AC01BD0122E0769567955795479552
:102780002A95D1F7411551056105710519F0EE5FE4
:10279000DB01CA01B695A79597958795892B8A2B5A
:1027A0008B2B09F0EF5F8E2F90E087309105D0F4EE
:1027B000FC01EE59FF4F0C946A318DE895E014C08E
:1027C00085E895E011C089E795E00EC084E795E0C3
:1027D0000BC08FE695E008C085E695E005C08DE565
:1027E00095E002C082E595E00E94DF1D0E949B29D2
:1027F00081FB002700F982FB112710F980FD03C03F
:1028000082E495E002C08AE495E00E94DF1D011198
:1028100003C082E395E002C08AE395E00E94DF1DD9
:10282000111103C082E295E002C08AE295E00E94A5
:10283000DF1D3FC080919606909197068059924087
:102840009C013C5F2130344028F020E034E0281B1C
:10285000390B02C020E034E060918E0270918F024B
:10286000DC01A057BD4FAC01280F391F4217530799
:10287000E0F4FA01E81BF90BEE5DFE4FE491FC91E8
:10288000EF1779F0EC93FA0116E0F695E7951A95B3
:10289000E1F7840102C0000F111FEA95E2F7602BF7
:1028A000712B4F5F5F4F1196E1CF70938F02609352
:1028B0008E0280914E07882309F4E1C020918E0298
:1028C00030918F022115310509F4D9C08091310270
:1028D0008111D5C0282E312C7401082E02C0EE0CB7
:1028E000FF1C0A94E2F7A9014E215F21452B11F448
:1028F0008F5FF0CF90913002910166E0220F331F7D
:102900006A95E1F790FD13C08295880F880F807457
:1029100080930F01220F232F221F330B3195209319
:102920001201815C809310011092130112C046E0E5
:10293000369527954A95E1F7220F220F220F209313
:102940000F0110921201295F2093100187E08093FC
:10295000130124E630E047E050E06DE071E088E7E5
:102960000E946B2E892B09F08AC08091300280FD75
:1029700023C0C10126E0880F991F2A95E1F7AC0119
:1029800040575D4F04E610E020E430E060E488E763
:102990000E94922E892B09F072C00E94532AE09463
:1029A000F09480918E0290918F02E822F922F092A9
:1029B0008F02E0928E0263C0E0EFF1E0DF010C2DA8
:1029C0001D920A95E9F786E0220C331C8A95E1F7FF
:1029D00028E831E03A8B298B40E851E0A989BA898F
:1029E0008D91BA8BA98BFA019191AF019101290FB9
:1029F000311D890100571D4F280190E080519E4FE5
:102A0000FC0107E09F01281B390B782C01C0770CD3
:102A10002A95EAF7B201A12CDB011D91BD01172116
:102A2000202F2A192770622E022E000C330BB12F93
:102A300001C0BB0F6A94EAF76B2E319521953109DD
:102A40002770332701C016952A95EAF7612A10816D
:102A5000612A6082A39418E0A112DECF0150319662
:102A60000F3F81F629893A892059314009F0B6CFC4
:102A700004E610E020E430E040EF51E087CF8091A1
:102A80004D078823B9F00E9407290091490710914A
:102A90004A0720914B0730914C07DC01CB01801B8A
:102AA000910BA20BB30B8F3F9F4FAF4FBF4710F45B
:102AB0000E94392AB11001C0D1100E94532A86E029
:102AC000E7E6F7E0DE01119601900D928A95E1F7B5
:102AD000F0906907E0906A0710916B0700916C070E
:102AE0001092690710926A0710926B0710926C0798
:102AF000F11003C0EE2009F451C080916507909158
:102B000066070E94F8289C0190916107992309F4B7
:102B1000DBC02333310508F441C09F3F19F09F5FAC
:102B200090936107FF2061F00E940F2D1F1414F095
:102B30009FEF01C091E0899F802D11248093690748
:102B4000EE2061F00E940F2D1E1414F09FEF01C0C3
:102B500091E0899F802D112480936A073091690745
:102B60003323E1F020916A072223C1F045EB3403BF
:102B7000C0011124992319F09093690703C081E0E3
:102B80008093690765EB2603C0011124992319F08E
:102B900090936A0703C081E080936A07111103C014
:102BA000002309F451C080916307909164070E944B
:102BB000F8289C0190916007992309F48AC0253672
:102BC000310508F441C09F3F19F09F5F9093600763
:102BD000112361F00E94ED2C111614F09FEF01C03B
:102BE00091E0899F802D112480936B07002361F071
:102BF0000E94ED2C101614F09FEF01C091E0899F08
:102C0000802D112480936C0730916B073323E1F002
:102C100020916C072223C1F075EB3703C00111240A
:102C2000992319F090936B0703C081E080936B07A1
:102C300035EB2303C0011124992319F090936C07FD
:102C400003C081E080936C078091690781110BC0FC
:102C500080916A07811107C080916B07811103C0C1
:102C600080916C0781110E948A2DFB82EC821D836A
:102C70000E8386E0FE013196A7E6B7E001900D9243
:102C80008A95E1F70E949B2990913402891709F4F3
:102C900000CC0E949B2980933402FBCB09BD19BD57
:102CA00009B400FEFDCF8091D8008F7D8093D800BD
:102CB0008091E00082608093E0008091E00081FDDF
:102CC000FCCF0E941327ECCB2D32314008F027CFE8
:102CD00065CF2D32314008F078CFB6CF80E008952F
:102CE0009091CD0192FF0DC0282F2871283019F442
:102CF000877F846006C0282F2471243011F48B7FD5
:102D0000886093FF0DC0282F2871283119F4877E21
:102D1000846106C0282F2471243111F48B7E8861D0
:102D20002091CE0120FF0DC0382F3871383019F4B2
:102D3000877F816006C0382F3171313011F48E7F6A
:102D4000886021FF0DC0282F2871283119F4877E53
:102D5000816106C0282F2171213111F48E7E886196
:102D600094FD877E0895AF92BF92CF92DF92EF924B
:102D7000FF920F931F93CF93DF937C015B016A0156
:102D8000809175028A3018F001E010E002C00AE07C
:102D900010E0C1E0D0E0F894B501C701F601099553
:102DA0007894811115C021960C171D0794F0CC9FC3
:102DB0009001CD9F300D300D112480E090E045E36F
:102DC0004A95F1F70000019682179307C1F7E3CF08
:102DD00081E0DF91CF911F910F91FF90EF90DF90F5
:102DE000CF90BF90AF9008958F929F92AF92BF9275
:102DF000CF92DF92EF92FF920F931F93CF93DF93C7
:102E0000FB0180809180A280B3809FB7F894C0902E
:102E10005907D0905A07E0905B07F0905C079FBF7E
:102E2000C818D908EA08FB08F4E6CF16D104E10473
:102E3000F10410F4442351F17B01C82F880FDD0BFE
:102E400001151105A9F08AE08C9FF0018D9FF00D0E
:102E50001124EC5EFE4F838194818B5A9D4F4281F9
:102E600050E00417150708F4A801B9010E947D314C
:102E7000CE010E942D30892B11F080E008C00E9405
:102E80000729F701608371838283938381E0DF9157
:102E9000CF911F910F91FF90EF90DF90CF90BF9057
:102EA000AF909F908F9008950F931F93CF93DF93D0
:102EB0001F92CDB7DEB780914D07898320916802BC
:102EC00030E090E041E02817390709F440E001E0E4
:102ED00010E09E012F5F3F4F61E772E086E00E94A5
:102EE000F4160F90DF91CF911F910F9108950F93DA
:102EF0001F93CF93DF93CDB7DEB728970FB6F89423
:102F0000DEBF0FBECDBF85E0E4E4F7E0DE01119641
:102F100001900D928A95E1F780910507909106073F
:102F2000A09107078E839F83A88741E08885811140
:102F300001C040E008E010E09E012F5F3F4F6DE6CA
:102F400072E085E00E94F41681111092070728961E
:102F50000FB6F894DEBF0FBECDBFDF91CF911F91AA
:102F60000F9108957F928F929F92AF92BF92CF92CE
:102F7000DF92EF92FF920F931F93CF93DF931F92F5
:102F8000CDB7DEB7762E4A0159016801082F880FA8
:102F9000110BC8010E942D30892B09F07EC08AE0F8
:102FA000809FF001819FF00D1124EC5EFE4F458162
:102FB00050E04115510511F041E050E08AE0809F5A
:102FC000F001819FF00D1124EC5EFE4F6681778148
:102FD0006B5A7D4FCE0101960E947D31F4014081F4
:102FE0005181628173812FB7F89480915907909134
:102FF0005A07A0915B07B0915C072FBF841B950B0C
:10300000A60BB70B84369105A105B10540F4B701B5
:10301000C6010E94792A9981891709F440C0072DB9
:10302000770C110BC8010E942D30892B09F5E11492
:10303000F10401F18AE0809FF001819FF00D1124DD
:10304000EC5EFE4F458150E0E416F50608F4A7015A
:103050008AE0809FF001819FF00D1124EC5EFE4F0D
:10306000668177816B5A7D4FC5010E947D3102C018
:1030700010E001C011E0B701C6010E94792A91E079
:103080002981281390E0192381F00E940729F40177
:10309000608371838283938308C010E001C011E0D4
:1030A000A701B601C5010E947D31812F0F90DF91EC
:1030B000CF911F910F91FF90EF90DF90CF90BF9035
:1030C000AF909F908F907F900895CF92DF92EF9274
:1030D000FF920F931F93CF93DF9300D000D0CDB713
:1030E000DEB76B0184E0E82EF12C06E512E09E01CC
:1030F0002F5F3F4F4DE452E061E080E00E94B21745
:10310000882361F049815A816B817C814093490217
:1031100050934A0260934B0270934C0240914902D3
:1031200050914A0260914B0270914C02F60140832B
:103130005183628373830F900F900F900F90DF91F4
:10314000CF911F910F91FF90EF90DF90CF90089556
:1031500080914802811118C08091D80080618093CD
:10316000D8008AE18A95F1F700C08091D90080FDEE
:1031700002C082E001C081E080934802823021F4E5
:103180000E944F211092830281E090914802913079
:1031900009F080E008950F931F93CF93DF9300D041
:1031A00000D0CDB7DEB74091690250916A026091BC
:1031B0006B0270916C022FB7F8948091590790912F
:1031C0005A07A0915B07B0915C072FBF841B950B3A
:1031D000A60BB70B84369105A105B10508F443C0D1
:1031E0000E94A818882319F00E9407290EC00E9487
:1031F00007290091C9011091CA012091CB0130919A
:10320000CC01600F711F821F931FDC01CB0102965E
:10321000A11DB11D89839A83AB83BC8380913F013B
:10322000909140018B5A9D4F40913E0150E04530B6
:10323000510510F044E050E0BE016F5F7F4F0E94E7
:103240007D3184E090E00E942D30892B11F080E0E8
:103250000BC00E9407296093690270936A028093F1
:103260006B0290936C0281E00F900F900F900F9083
:10327000DF91CF911F910F910895F894E82FE29577
:10328000EF70F0E031A1282F2F7081E090E001C0B5
:10329000880F2A95EAF7982F9095932391A392A1EE
:1032A000892B82A378940895CF93DF938238910578
:1032B00069F1B0F48133910509F46FC048F48932A3
:1032C000910509F465C08A32910509F46BC08AC082
:1032D0008533910509F457C089339105B9F082C04F
:1032E000833E910571F138F4803E9105B1F0823E44
:1032F000910511F177C0863E9105B9F1873E9105A0
:10330000C9F1843E910509F06DC024C02091CD0122
:1033100020FD53C021FD51C065C08091CD0180FDCD
:1033200046C08091CE0180FF48C08091CD0184FDD0
:1033300050C183EE90E04FC18091CD0182FF3AC031
:10334000F4CF8091CD0182FD35C08091CE0180FD0A
:1033500034C0EBCF8091CE0181FF35C08091CD018B
:1033600084FD37C187EE90E036C18091CD0183FFA7
:1033700027C0F4CF8091CD0183FD22C08091CE0182
:1033800081FD21C0EBCF8091CD0185FD1FC021C003
:103390008091CD0185FD1DC019C08091CD0186FDB4
:1033A0001BC01DC08091CD0186FD19C015C089E3E9
:1033B00090E011C182EE90E00EC180EE90E00BC172
:1033C00086EE90E008C184EE90E005C189E290E0CD
:1033D00002C185E390E0FFC08AE290E0FCC081E397
:1033E00090E0F9C0811531E5930708F069C08115B7
:1033F00040E59407F0F09C0174E0369527957A95A6
:10340000E1F7922F9370482F437021E030E002C023
:10341000220F331F4A95E2F73C68392B982F9F7093
:103420009695969540E2949FC0011124822B932B90
:10343000D2C0883E910568F5803E910508F0CBC06A
:10344000883A9105B8F4853A910548F0855AE82FF5
:10345000F0E0E057FE4F808190E09064BCC0813086
:10346000910509F4B3C008F4B4C08430910508F4A0
:10347000B0C0B1C08F3B910508F0ABC0885AE82FAF
:10348000F0E0EE0FFF1FED56FE4F808191819464B6
:10349000A2C0811520E2920758F4811531E093070C
:1034A00008F099C08D3E910508F493C0906593C0D3
:1034B000811540E4940708F48CC09F70906A8BC01B
:1034C000811525E5920708F042C0811534E5930780
:1034D00028F0982F8827846F906A7DC0811543E576
:1034E0009407B0F09C012370332741E050E002C004
:1034F000440F551F2A95E2F7282F2695269580E23E
:10350000289F90011124CA01822B932B9A6863C0D3
:10351000811522E5920728F4982F8827816F906AF9
:103520005AC09C012370332741E050E002C0440F91
:10353000551F2A95E2F7282F2695269580E2289F89
:1035400090011124CA01822B932B9C6844C0EC018A
:10355000811539E59307A8F48115984528F09C2F2B
:103560008827806F906A37C0C11586E5D80788F52F
:103570008C2F0E9470168F7190E0982F8827906290
:103580002AC081152AE5920790F48C2F8F700E9433
:10359000701694E0D695C7959A95E1F7CF70D0E074
:1035A000DC2FCC27D0699E01282BC90114C090566E
:1035B0008115904270F48D2F8F710E947016282F04
:1035C0002F71CE0199279062922B05C081E090E087
:1035D00002C080E090E0DF91CF9108950C9407291C
:1035E000CF92DF92EF92FF920F931F93CF93DF93CF
:1035F0001F92CDB7DEB7EE24E394F12C0BE512E079
:103600009E012F5F3F4F41E552E063E082E00E9460
:10361000B217C82E882379F1D090DA018D2D90E071
:103620009C012D513E4F79011981F9018081181BB0
:10363000012F80E010165CF40150F70180818F5F4C
:10364000808360E08D2D0E94601081E0F3CF912F88
:1036500017FD90E0191B112359F01F5FF7018081BE
:103660008150808361E08D2D0E94601081E0F3CF56
:1036700081110E94EE1A8C2D0F90DF91CF911F9136
:103680000F91FF90EF90DF90CF9008959F92AF92AF
:10369000BF92CF92DF92EF92FF920F931F93CF933F
:1036A000DF93CDB7DEB72C970FB6F894DEBF0FBE11
:1036B000CDBFAE014F5F5F4F7A0188E0FA011192F2
:1036C0008A95E9F700E611E05A01CC24C394D12C85
:1036D000F80180818F3F09F447C0F894E82FE29504
:1036E000EF70F0E021A18F70A60102C0440F551FBA
:1036F0008A95E2F7CA01922F982B91A392A1809507
:10370000892382A3789400C0E8E6F1E020E030E06D
:10371000912C41914F3FB1F0A42FA295AF70B0E032
:1037200090968C9190E04F7002C0959587954A9540
:10373000E2F780FD07C08C2D022E01C0880F0A948D
:10374000EAF701C080E0982A2F5F3F4F283031050B
:1037500001F7F80180818F3F11F00E943D19F0EAD6
:10376000FA95F1F7F50190820F5F1F4FFFEFAF1A47
:10377000BF0A21E00436120709F0AACF48E050E062
:10378000B7018FEC91E00E9470318C01892B41F0E0
:1037900088E0F701AFECB1E001900D928A95E1F776
:1037A000F090D8010115110549F081E080934102A4
:1037B0000E9413299093400280933F02809141021E
:1037C0008823B1F080913F02909140020E94F82836
:1037D000059770F0AFECB1E0EF2DF0E0E552FE4F51
:1037E0008D91819341E0A33DB407D1F7109241023E
:1037F0000115110509F00AC10E94A818E091D8012D
:10380000882309F466C019861A861B861C860E2F2B
:1038100010E005521E4F809175028A3058F445E63B
:1038200058E1BE01675F7F4FC8010E94B31688232D
:1038300099F10AC080914202909143020E94F828B7
:10384000843F914060F73AC040EF5AE1BE01675FA4
:103850007F4FC8010E94B3168823F1F04BEC58E16A
:10386000BE01675F7F4FC8010E94B3168823A1F095
:1038700047E757E1BE01675F7F4FC8010E94B3165B
:10388000882351F044E557E1BE01675F7F4FC801CF
:103890000E94B3168111BDC0809175028F3F19F04F
:1038A0008F5F80937502809175028A3008F4B3C0EF
:1038B0000E9413299093430280934202E091D70122
:1038C000F0E0E552FE4F108211821282138201E075
:1038D000B7C0F0E0E552FE4FF89484E0A6E5B2E010
:1038E00001900D928A95E1F764E070E086E592E040
:1038F0000E94792A809355027894F894E091E60129
:10390000F0E0ED51FE4F8081898780935B0261E09A
:1039100070E0CE0109960E94792A80935A02789429
:10392000F894C0905C02D0905D02E0905E02F0904E
:103930005F028091440290914502A0914602B091AD
:103940004702C816D906EA06FB06D1F0C092440227
:10395000D0924502E0924602F09247020E94A818D7
:1039600081110EC00E940729C61AD70AE80AF90A6F
:10397000C092C901D092CA01E092CB01F092CC0171
:103980007894F89480916702882399F180FF22C08F
:10399000909160028091440790FF09C081608093FC
:1039A000440760E0892F86950E942F2C13C08E7FDC
:1039B00080934407809107078160809307078FEF0A
:1039C00090E7E2E081509040E040E1F700C0000065
:1039D0000E94962A8091670281FF09C020E04091F1
:1039E000630260916202809161020E94E22A109259
:1039F00067027894F89480916802882319F00E94F5
:103A0000532A02C00E94392A78941AC001E010E0BB
:103A100017C010927502E091D701F0E0E552FE4F19
:103A2000DE0119969E01235F3F4F00E08D9190814A
:103A3000981711F0808301E03196A217B307B1F710
:103A4000802F2C960FB6F894DEBF0FBECDBFDF914E
:103A5000CF911F910F91FF90EF90DF90CF90BF908B
:103A6000AF909F900895CF93DF93C0919606D09129
:103A700097068A30B1F420918D02CE018059924090
:103A8000622F70E00E94E530281B822F66E00E94C2
:103A90004A31C82FC15008F48FC080E20E94331D04
:103AA000F9CF8D30E9F4C059D24020918D02622FB8
:103AB00070E0CE010E94E530281B822F9E01280F66
:103AC000311D2115344018F080E0C0E0D0E0C80F6F
:103AD000D11DC057DD4FD0939706C09396066CC09A
:103AE00096E0FE01A0E9B6E001900D929A95E1F70B
:103AF000803E30F086E0FE0111928A95E9F70BC016
:103B0000F6E08F9FB0011124685E784F46E050E0E8
:103B1000CE010E94F930C0919606D091970646E0FA
:103B200050E0BE0180E996E00E947031892B49F196
:103B30009E0120593240A90186E0569547958A9505
:103B4000E1F781E090E0BC0102C0660F771F4A9563
:103B5000E2F740918E0250918F02462B572B2B5F3C
:103B60003F4F66E0369527956A95E1F702C0880FCA
:103B7000991F2A95E2F7842B952B90938F028093BF
:103B80008E029E012A58324040918D02642F70E0CF
:103B9000C9010E94E530481B463010F4240F311D46
:103BA000211584E0380710F020E030E020573D4F29
:103BB0003093970620939606DF91CF910895CF9387
:103BC000DF93EC01FE018491882321F00E94331DD4
:103BD0002196F8CFDF91CF910895EF92FF920F9346
:103BE0001F93CF93DF93EC017B0164E670E088E7DD
:103BF0000E94BA2D8C01EC0EFD1ECE15DF0561F082
:103C000017FD0AC0FE01849164E670E00E943B2E1D
:103C10008C012196892B89F30E94BF2EC801DF9168
:103C2000CF911F910F91FF90EF900895EF92FF9227
:103C30000F931F93CF93DF937C018B010E94ED279D
:103C4000811119C0E70101151105A1F08091E8006B
:103C500085FD0AC08091E8008E778093E8000E947D
:103C6000ED27882381F307C089918093F1000150EB
:103C70001109E9CF80E0DF91CF911F910F91FF9063
:103C8000EF9008951F93CF93DF93CDB7DEB7AA9738
:103C90000FB6F894DEBF0FBECDBFE5E8F2E080912D
:103CA000F100819322E0ED38F207C9F78091860296
:103CB000833009F460C030F4813071F0823009F44F
:103CC0009AC0B1C08A3009F486C08B3009F46BC049
:103CD000893009F0A8C020C080918502813A09F09E
:103CE000A2C08091E800877F8093E80080918902DC
:103CF00090918A02892B21F468E089E792E003C061
:103D000060E080E090E070E00E9474288091E8001C
:103D10008B778093E80087C080918502813209F01B
:103D200082C08091890290918A02029708F07BC03C
:103D30008091E800877F8093E8008091E80082FD11
:103D400005C0809183028111F8CF6DC02091F300EE
:103D50008091F20090E0922B029729F48091F1007B
:103D60008B7F813021F48091F100809378028091E3
:103D7000E8008B7754C080918502813A09F053C0E6
:103D80008091890290918A02892B09F04CC0809120
:103D9000E800877F8093E8008091E80080FFFCCFF7
:103DA00080915A0137C0809185028132E1F580917E
:103DB000890290918A02892BB1F58091E800877F72
:103DC0008093E8000E9420288091870280935A0106
:103DD0000E94132728C080918502813221F58091AD
:103DE000E800877F8093E8000E9420288091880265
:103DF0008093770218C080918502813AA1F4809166
:103E0000E800877F8093E8008091E80080FFFCCF86
:103E1000809177028093F1008091E8008E77809303
:103E2000E8000E9420288091E80083FFCCC18091A7
:103E3000850290918602492F50E04A30510508F0E2
:103E4000C2C1FA01E759FF4F0C946A31803821F062
:103E5000823809F0B8C108C0809181029091820235
:103E6000992389F082600FC0809189028F7087301A
:103E700008F0A9C18093E9008091EB0085FB8827B9
:103E800080F91092E9009091E800977F9093E80004
:103E90008093F1001092F10065C1282F2D7F09F069
:103EA00092C1882319F0823061F08DC18091870220
:103EB000813009F088C1933009F080E0809382025C
:103EC0002EC08091870281112AC0809189028F7053
:103ED0002FEF280F263008F076C18093E90020915B
:103EE000EB0020FF1CC0933021F48091EB00806236
:103EF00014C09091EB0090619093EB0021E030E0D2
:103F0000A90102C0440F551F8A95E2F74093EA00C9
:103F10001092EA008091EB0088608093EB00109291
:103F2000E9008091E800877F20C181114CC1109188
:103F300087021F778091E3008078812B8093E300D4
:103F40008091E800877F8093E8000E94202880917C
:103F5000E80080FFFCCF8091E30080688093E3005D
:103F6000111102C082E001C083E0809383022BC163
:103F70008058823008F027C1809187029091880292
:103F80008C3D53E0950779F583E08A838AE2898343
:103F90004FB7F894DE01139620E03EE051E2E32FA4
:103FA000F0E050935700E49120FF03C0E295EF70DA
:103FB0003F5FEF708E2F90E0EA3010F0C79601C09F
:103FC000C0968D939D932F5F243149F74FBF809109
:103FD000E800877F8093E8006AE270E0CE010196F6
:103FE0000E947428AEC04091890250918A02292F04
:103FF000332723303105A9F068F42130310509F465
:10400000F1C02230310509F0DEC08BE390E0E7EA31
:10401000F6E044C02132310521F12232310571F13F
:10402000D2C0992781309105A1F058F0029709F08C
:10403000CAC0E4EFF6E0E4918E2F90E0E4EFF6E002
:104040002AC0E4E1F7E0E4918E2F90E0E4E1F7E0AC
:1040500022C0E2E0F7E0E4918E2F90E0E2E0F7E0AA
:104060001AC04115510509F4C2C04130510509F08B
:10407000AAC089E090E0E2EDF6E010C041155105DC
:1040800009F4BAC04130510509F09DC08BE790E0BA
:10409000ECEEF5E003C0009709F495C02091E8002C
:1040A000277F2093E80020918B0230918C028217A9
:1040B000930708F49C0140E02115310589F18091B6
:1040C0008302882309F43DC08530D9F18091E8004E
:1040D00083FD37C08091E80082FD2FC08091E80009
:1040E00080FFEACF4091F3008091F20090E0942BA2
:1040F0002115310559F08830910540F444914093E1
:10410000F1003196215031090196F2CF41E0089734
:1041100009F040E08091E8008E778093E800CCCFF2
:104120004111CDCF0AC080918302882351F08530A0
:1041300041F08091E80083FD04C08091E80082FF97
:10414000F2CF8091E8008B778093E8003CC0803804
:10415000D1F58091E800877F8093E8008091840208
:104160008093F1008091E8008E778093E8000E94B0
:10417000202829C0811127C0809187029091880250
:104180009927029704F58091E800877F8093E800E3
:1041900010918702109384020E942028111106C0FA
:1041A0008091E30087FD02C081E001C084E080933C
:1041B000830242E061EC81E00E943F2842E261EC30
:1041C00082E00E943F288091E80083FF1AC080911E
:1041D000E800877F8093E8008091EB008062809305
:1041E000EB000FC082E190E0E2EEF6E057CF89E00D
:1041F00090E0E9EBF6E052CF80E490E0E7E6F6E00D
:104200004DCFAA960FB6F894DEBF0FBECDBFDF919B
:10421000CF911F9108951F920F920FB60F92112404
:104220002F933F934F935F936F937F938F939F93BE
:10423000AF93BF93CF93DF93EF93FF93C091E900C8
:10424000CF708091EC00D82FD17080FDD0E8109213
:10425000E9008091F000877F8093F00078940E94BD
:10426000421E1092E9008091F00088608093F00077
:10427000CD2BCF70C093E900FF91EF91DF91CF91EB
:10428000BF91AF919F918F917F916F915F914F916E
:104290003F912F910F900FBE0F901F901895E8ED52
:1042A000F0E080818E7F80831092E2001092DA002D
:1042B0001092E100A0EEB0E08C9181608C9380813F
:1042C0008F77808319BCA7EDB0E08C918E7F8C93A3
:1042D00080818F7E8083109276020895CF92DF9244
:1042E000EF92FF920F931F93CF93DF93C8EDD0E02F
:1042F00088818F7E8883E7EDF0E080818160808314
:1043000084E082BF81E08093760288818E7F8883FB
:1043100002EE10E0F80110821092DA0081EEC82E51
:10432000D12CF601108288818F77888388818068FC
:10433000888388818F7D888319BC109283021092B4
:104340008402109282021092810290EEE92EF12CEA
:10435000F70180818B7F808388818160888342E040
:1043600060E080E00E943F28F60180818E7F80839C
:10437000F801808181608083808188608083F7017B
:1043800080818E7F8083888180618883DF91CF9157
:104390001F910F91FF90EF90DF90CF9008951F92A3
:1043A0000F920FB60F9211242F933F934F935F9369
:1043B0006F937F938F939F93AF93BF93EF93FF93ED
:1043C0008091E10082FF09C08091E20082FF05C078
:1043D0008091E1008B7F8093E1008091DA0080FF83
:1043E0002AC08091D80080FF26C08091DA008E7F9D
:1043F0008093DA008091D90080FF18C080E189BDE8
:1044000082E189BD09B400FEFDCF81E08093830283
:104410008091760281110FC00E944F210E946E216F
:104420008091E20084608093E20005C019BC109284
:104430008302109276028091E10080FF17C0809184
:10444000E20080FF13C08091E2008E7F8093E20043
:104450008091E20080618093E2008091D8008062C8
:104460008093D80019BC85E0809383028091E1009D
:1044700084FF2EC08091E20084FF2AC080E189BDC4
:1044800082E189BD09B400FEFDCF8091D8008F7D07
:104490008093D8008091E1008F7E8093E10080912D
:1044A000E2008F7E8093E2008091E2008160809341
:1044B000E20080918402882311F084E007C080919B
:1044C000E30087FD02C081E001C083E080938302A6
:1044D0008091E10083FF27C08091E20083FF23C029
:1044E0008091E100877F8093E10082E080938302E6
:1044F000109284028091E1008E7F8093E100809190
:10450000E2008E7F8093E2008091E20080618093E0
:10451000E20042E060E080E00E943F288091F000ED
:1045200088608093F000FF91EF91BF91AF919F91D0
:104530008F917F916F915F914F913F912F910F904C
:104540000FBE0F901F901895CF9384E090E00E94CB
:104550000231C82F82E290E00E9402312C2F30E01D
:10456000A901582BCA01CF91089569EE7EEF80E032
:1045700090E00E94343160E082E090E00E941631C9
:1045800060E083E090E00E9416311092E801109202
:10459000E9011092EA011092EB0160E084E090E002
:1045A0000E94163160E082E290E00E94163160E0E5
:1045B00085E090E00E94163160E086E090E00E9485
:1045C00016316FEF87E090E00E94163140E050E036
:1045D000BA0188E090E00E94283160E08DE090E030
:1045E0000E94163140E050E0BA0188E190E00E945C
:1045F000283160E087E190E00E94163140E050E011
:10460000BA018CE190E00E94283160E070E080E225
:1046100090E00E94343140E050E0BA0188E190E03F
:104620000E94283140E050E0BA018FE090E00E9403
:10463000283140E050E0BA0183E190E00C94283149
:104640008091040781111092040708959091030747
:1046500080910207892B20910107982F922B90932C
:10466000980680910407882389F0892B8093980607
:10467000EAE9F6E097E080E0915029F021912223C9
:10468000D9F38F5FF9CF81110E942023E091540765
:10469000F0915507309731F00280F381E02D88E9E1
:1046A00096E00994089580E090E00E94852980E0DA
:1046B00090E00E946F2910920207109201070E9459
:1046C0002623E7E6F7E086E0DF011D928A95E9F709
:1046D0001092610710926007109262070C948A2D65
:1046E000CF93C091CE01C2FB992790F9981781F022
:1046F00080FBC2F9C093CE016091CD0184E090E0CF
:104700000E9416316C2F82E290E0CF910C9416310A
:10471000CF9108958091FF069091CE06891719F0E8
:104720008F5F8770FBCF08950F931F93CF93DF9315
:104730008091CD0682958F7009F05DC08091CA0688
:10474000882309F458C08091FF061091CE0660912D
:10475000C8067091C906C091CB06D091CC0691E0F5
:104760006F3F09F090E0292F06E0811709F443C05C
:10477000209721F07F3F21F030E003C031E001C0FD
:10478000322F90E030FD34C0089FF001099FF00DFA
:104790001124DF01A153B94F11963C9111973713A2
:1047A00027C03C91361324C012963C9112973111C8
:1047B0001FC013964D915C9114974C1B5D0B483CA8
:1047C0005105B0F48091CD068F7080618093CD0645
:1047D000EC52F94F80818F708061808388EC96E085
:1047E0000E946A0ADF91CF911F910F910C948A2346
:1047F00001968770BACFDF91CF911F910F910895E5
:104800008F929F92AF92BF92EF92FF920F931F935E
:10481000CF93DF938090EC019090ED01A090EE019A
:10482000B090EF014091E8015091E9016091EA01F7
:104830007091EB01842A952AA62AB72ACFE1D0E00D
:10484000E92EF12C082F10E0D501C4010C2E04C074
:10485000B695A795979587950A94D2F780FD04C0E1
:10486000219790F780E01AC0FE0183E0EE0FFF1F52
:104870008A95E1F7EE0DFF1D93E0EE0FFF1F9A956D
:10488000E1F7E00FF11FEE0FFF1FE85AF34F85919C
:1048900094910E945419019719F38C2FDF91CF91B5
:1048A0001F910F91FF90EF90BF90AF909F908F90CE
:1048B0000895CF93DF93D82FC92F0E940024EC2FA7
:1048C000F0E098E0899FE00DF11D112483E0EE0FE8
:1048D000FF1F8A95E1F7ED0FF11DEE0FFF1FE85A5C
:1048E000F34F859194910E945419DF91CF910895CF
:1048F000FC01808191810E945924292F2F70E92F7A
:10490000E295EF704E2F50E0FA013297EE30F1054C
:10491000B8F4ED58FF4F0C946A31803F99F018F4C9
:10492000883E70F40FC0843F59F40CC0883E50F0AC
:10493000813F31F407C0822F86958695869508952C
:1049400080E0089581E008959F92AF92BF92CF9248
:10495000DF92EF92FF920F931F93CF93DF93CDB728
:10496000DEB761970FB6F894DEBF0FBECDBF8C01E6
:1049700085E0F801DE011D9601900D928A95E1F720
:10498000F801E2809091C8066091C9064091CB067B
:104990005091CC064115510531F06F3F31F481E063
:1049A0009F3F19F403C081E001C080E0F82FF1704F
:1049B0009F2E80FD1AC1F80130812181C380D480EF
:1049C00088ECA82E86E0B82EF090CA06F601E41B0B
:1049D000F50BFF2009F4C6C08091CD06E83CF10537
:1049E00008F091C0482F407F09F050C0621311C0F9
:1049F00093130FC0FE2CE1100CC08F708061809368
:104A0000CD06C5010E946A0A8091CD06F801858312
:104A100029C1CD2831F02F3F31F481E03F3F19F417
:104A200003C081E001C080E080FD03C081E08E25ED
:104A300002C080E090E0F82FF170FF2E80FF1CC0D4
:104A40008091FF064091CE0656E0841709F4E8C035
:104A500090E0589FF001599FF00D1124E153F94F58
:104A60006181261306C06081631303C06281E61270
:104A700003C001968770E9CFFE2CEE2009F4F2C046
:104A80008091CD0681608093CD0649C0621306C037
:104A9000931304C0E11002C0F80186C0C8010E944F
:104AA0007824882351F1EE2041F12091CD06822F08
:104AB00082958F7090E0029774F08091C806909173
:104AC000C90698878F831986DB86CA862C87CE0114
:104AD00007960E946A0A86E0F801A8ECB6E0019009
:104AE0000D928A95E1F70E9494230AC06217C9F0DB
:104AF000C8010E94782481111EC0C8010E946A0A60
:104B0000FF24F394AFC0482F407F81F788EC96E0F4
:104B10000E946A0A86E0F50111928A95E9F7F12C64
:104B2000A1C09313E5CFE110E3CFF8018583C8015D
:104B30000E946A0A54C0EE2001F32091CD06822F14
:104B400082958F7090E0029734F28091C806909120
:104B5000C9069A8389831B82DD82CC822E83CE0193
:104B60000196B7CFE83CF105D0F5FE2CEE2029F2F6
:104B7000621327C0931325C02091CD0620FD18C0D5
:104B8000822F82958F70482F50E04115510581F09A
:104B9000F80125834F30510541F08F5F982F929592
:104BA000907F822F8F70892B8583C8010E946A0AAB
:104BB00086E0F801A8ECB6E001900D928A95E1F745
:104BC00051C0C8010E947824811185CF8091CD0603
:104BD00081608093CD06C8010E946A0A43C086E0C6
:104BE000F50111928A95E9F73DC0EE2009F485CFD1
:104BF000C8010E947824F82E882309F47ECF86E02D
:104C0000F801A8ECB6E001900D928A95E1F7809149
:104C1000C8069091C9060E9459240E94942322C07C
:104C20003D872E878D859E850E945924292F2295A8
:104C30002F70223028F49F7039F0811105C00BC00D
:104C4000243028F49F7049F4805E883020F0C80139
:104C50000E946A0A9F2CF92C05C0F8019581907F6B
:104C600099F7F9CF8F2D61960FB6F894DEBF0FBE7E
:104C7000CDBFDF91CF911F910F91FF90EF90DF900B
:104C8000CF90BF90AF909F90089528E0929F800DA5
:104C90001124682F669566956695982F977085E024
:104CA000689FB001112440E050E080E0FB01E40F78
:104CB000F51FE056F94F208130E0092E02C03695ED
:104CC00027950A94E2F721703327042E01C0220FA2
:104CD0000A94EAF7822B4F5F5F4F4530510531F759
:104CE000089528E0929F800D1124E82FE695E6951F
:104CF000E695877051E001C0550F8A95EAF785E087
:104D0000E89FF0011124E056F94F20E030E070E018
:104D10004081CB01022E02C0969587950A94E2F756
:104D20008170819584278523842781932F5F3F4F4E
:104D30002530310569F708956093EC017093ED011A
:104D40008093EE019093EF010C9453230F931F93E4
:104D500041E050E060E070E004C0440F551F661F62
:104D6000771F8A95D2F74095509560957095809100
:104D7000EC019091ED01A091EE01B091EF018A015B
:104D80009B01082319232A233B23C901B8011F9142
:104D90000F910C949C26209100078095822380938C
:104DA0000007982F977041F430E0482F082E000C30
:104DB000550B2417350721F49091CE0192FF07C0BF
:104DC0008595859585950E94A626109200070895E1
:104DD0000F931F9341E050E060E070E004C0440F87
:104DE000551F661F771F8A95D2F78091EC0190912D
:104DF000ED01A091EE01B091EF018A019B01082B1A
:104E0000192B2A2B3B2BC901B8011F910F910C9430
:104E10009C266093E8017093E9018093EA019093E6
:104E2000EB010C9453231092030786E0EAE9F6E0C5
:104E3000DF011D928A95E9F70C945323882341F0F2
:104E40008095909103078923809303070C94262370
:104E50000895882339F090910307892B80930307E5
:104E60000C94262308951F93CF93DF93182FEB0103
:104E70000E941E09209741F08FE99FE00197F1F70A
:104E800000C000002197F6CF812FDF91CF911F91B5
:104E90000C94B70880917802089590918302943021
:104EA00031F580935D0770935F0760935E0782E042
:104EB0008093E9008FEF9091E800815095FD06C046
:104EC00095ED9A95F1F700008111F5CF8091E800FA
:104ED00085FF0DC040E050E063E070E08DE597E0B5
:104EE0000E94161E8091E8008E778093E800089556
:104EF000BC0184E00C944D27BC0183E00C944D2749
:104F000022E02093E9002FEF3091E800215035FD99
:104F100006C035ED3A95F1F700002111F5CF20914B
:104F2000E80025FF0BC040E050E066E070E00E9422
:104F3000161E8091E8008E778093E8000895CF9345
:104F4000DF9321E02093E9002FEF3091E80021501A
:104F500035FD06C035ED3A95F1F700002111F5CF8A
:104F60002091E80025FF14C0EC0140E050E068E02B
:104F700070E00E94161E8091E8008E778093E80012
:104F800088E0FE01A9E7B2E001900D928A95E1F771
:104F9000DF91CF91089580914807882319F08150BF
:104FA00080934807609144077091450780914607B8
:104FB000909147070C941D2C80914807833018F47A
:104FC0008F5F8093480760914407709145078091F7
:104FD0004607909147070C941D2C2091E4003091D6
:104FE000E50095E64091EC00842F817040FF23C0DE
:104FF0008091E80080FD1DC080918302882399F094
:10500000853099F08091EB0085FD11C04091E4005E
:105010005091E5002417350729F3915011F09A01BA
:10502000E1CF84E0089582E0089583E0089581E06F
:10503000089580E008954091E80042FFDDCF089593
:105040008091850287FF11C08091E80082FD05C034
:10505000809183028111F8CF11C08091E8008B7795
:105060000BC080918302882349F08091E80080FF83
:10507000F8CF8091E8008E778093E8000895982F0C
:10508000973068F59093E900981739F07091EC002B
:105090002091ED005091F00003C0242F762F50E0B6
:1050A00021FD02C09F5FECCF3091EB003E7F30933B
:1050B000EB003091ED003D7F3093ED003091EB003F
:1050C00031603093EB007093EC002093ED0050932F
:1050D000F0002091EE0027FDE5CF80E008958F706D
:1050E0008093E90081E0089520918B0230918C0239
:1050F0002617370748F06115710539F42091E8004B
:105100002E772093E80001C0B901FC0120E0611571
:10511000710579F1809183028823F1F18530F1F1F5
:105120008091E80083FD3CC08091E80082FD2EC0A4
:105130008091E80080FFEBCF2091F3008091F20096
:1051400090E0922B6115710551F08830910538F48B
:1051500021912093F100615071090196F3CF21E074
:10516000089709F020E08091E8008E778093E800AE
:10517000CECF2111CFCF0AC080918302882361F066
:10518000853061F08091E80083FD0AC08091E800DD
:1051900082FFF2CF80E0089582E0089583E00895D1
:1051A00081E0089578941F920F920FB60F92112408
:1051B0008F939F93AF93BF938091590790915A0714
:1051C000A0915B07B0915C070196A11DB11D809372
:1051D000590790935A07A0935B07B0935C07BF9160
:1051E000AF919F918F910F900FBE0F901F901895C8
:1051F0009C014FB7F8948091590790915A07A0915C
:105200005B07B0915C074FBF821B930B08952FB7CC
:10521000F8946091590770915A0780915B079091BB
:105220005C072FBF08952FB7F8948091590790918C
:105230005A07A0915B07B0915C072FBF08951F929A
:105240000F920FB60F9211248F939F93AF93BF933A
:1052500080915807811113C08091590790915A0786
:10526000A0915B07B0915C074196A11DB11D809391
:10527000590790935A07A0935B07B0935C07BF91BF
:10528000AF919F918F910F900FBE0F901F90189527
:105290009C012A5F3F4FFC014281461301C01282EC
:1052A000019682179307B9F708959C01FC01329685
:1052B0009FEF80E04191461789F09F3F19F441111B
:1052C00001C0982F8F5F8630A9F79F3F39F0F90111
:1052D000E90FF11D97FDFA956283089508952091D5
:1052E0005607309157072817390771F090935707E1
:1052F00080935607E0915407F0915507309721F0BD
:105300000084F185E02D0994089520915207309191
:1053100053072817390771F090935307809352076A
:10532000E0915407F0915507309721F00680F781FE
:10533000E02D099408950E94A818882351F0E09167
:105340005407F0915507309721F00190F081E02D3E
:10535000099480E008950F931F93CF93DF93C42F98
:10536000D22FFC0182818823C9F0409351070E940B
:1053700013299093500780934F0780E28C0F883059
:1053800008F072C0C77081E001C0880FCA95EAF7C3
:10539000DF91CF911F910F910C9429278091510794
:1053A00048133DC080914F07909150070E94F82804
:1053B000883C9105A0F510E21D0FCD17E9F080E2C1
:1053C0008C0F883040F4C77081E001C0880FCA9507
:1053D000EAF70E941E27183090F581E09D2F977004
:1053E00001C0880F9A95EAF70E942927093369F5C9
:1053F00060E570E089E32CC0093319F460E570E0E2
:1054000002C060E070E0802F0E943327183060F502
:10541000D77081E001C0880FDA95EAF70AC080E210
:105420008C0F883008F5C77081E001C0880FCA95DD
:10543000EAF7DF91CF911F910F910C941E2709334A
:1054400051F460E570E089E309C060E070E0802F0E
:105450000E943327DDCF60E070E0802FDF91CF9195
:105460001F910F910C943327DF91CF911F910F91D2
:10547000089580914E0790914D07882389F09923D4
:1054800069F062E070E08AED90E10E94ED1D892BE9
:1054900019F080914D07089510924D0790914D0796
:1054A00081E08927089580914E078823F9F00E94B2
:1054B0000729DC01CB01805A9541AF4FBF4F809344
:1054C000490790934A07A0934B07B0934C078091EC
:1054D0004D0781110BC062E070E088ED90E10E9401
:1054E000ED1D892B19F481E080934D0780914D07C4
:1054F0000895FC01680F791F8FEF91E3E617F70716
:1055000071F02191822728E030E087FF03C0880FE7
:10551000892701C0880F21503109B9F7EFCF0895CD
:10552000882311F0FA0101C0FB01099430915C015C
:105530008091440780FF16C0E0915B0163E0E69F25
:10554000F0011124E85FF84F539A8BB1877F9BB12C
:1055500098602FB7F894AF0163E0369F400D511D5E
:10556000112414C080915D0190915E01891720F78C
:10557000E82FF0E0AF01440F551FE40FF51FE85F7F
:10558000F84F1182108212828F5FF0CFE417F50777
:1055900089F0319168E09BB9000000C037FF8BB9FA
:1055A000330F000000C000C000C08BB900C06A9576
:1055B00091F7ECCF2FBF8FE594E00197F1F700C092
:1055C000000008959F92AF92BF92CF92DF92EF9228
:1055D000FF920F931F93CF93DF939091440790FF17
:1055E000D3C0922E142FC62FD82FE92FE695F0E0C6
:1055F000ED53FE4F8081809305079E7F923009F026
:1056000095C0E42FF0E0611106C0E852F04FE4913C
:10561000FE2F2E2F72C0E62EF12CE852F04FF4919F
:105620000F2FCF2ED12C26E0D29FC00111242FEFB7
:1056300030E0B9010E94E5304BEA4603C001479FC4
:10564000900D11248D0F911D8D0F911DB82EBB0C47
:10565000B80EA9014E195F094C9DC0014D9D900DDA
:105660005C9D900D1124E92FCB9DA0011124452FA5
:105670005527D901A41BB50BAC9DA001AD9D500DC4
:10568000BC9D500D1124D901AB19B1095D01AE9C2F
:10569000D001AF9CB00DBE9CB00D1124AB2FBB2729
:1056A0002A1B3B0B2C9DD0012D9DB00D3C9DB00DB8
:1056B00011242B2F6230710591F048F461157105AA
:1056C000E1F061307105B9F42F2FF52F16C0643069
:1056D000710569F040F06630710579F00CC02F2F2C
:1056E000F92FEB2F0AC0F92FE02F252F06C0292F05
:1056F000EF2FFB2F02C0292FE52F80915D019091A4
:105700005E01891788F4A82FB0E0AD01440F551F42
:10571000A40FB51FA85FB84F1196FC9311972C9357
:105720001296EC938F5FEDCF0E94962A80914507E9
:10573000D81308C080914607C81304C0809147075A
:10574000181729F080910707826080930707D0938C
:105750004507C0934607109347079920A9F0609129
:105760004407709145078091460790914707DF9164
:10577000CF911F910F91FF90EF90DF90CF90BF904E
:10578000AF909F900C941D2CDF91CF911F910F91A2
:10579000FF90EF90DF90CF90BF90AF909F900895D3
:1057A000E4E4F7E0438121E1421B08F440E021E01A
:1057B000628181810C94E22AE4E4F7E0438121E1F3
:1057C000420F08F44FEF21E0628181810C94E22ABC
:1057D000E4E4F7E0628121E1621B08F460E021E08B
:1057E000438181810C94E22AE4E4F7E0628121E1C3
:1057F000620F08F46FEF21E0438181810C94E22A6B
:10580000E4E4F7E0818121E04381628188500C94D7
:10581000E22AE4E4F7E0818121E043816281885F4C
:105820000C94E22A80914407982F9695913021F0AC
:1058300081708260809344070895CF92DF92EF9247
:10584000FF926B017C010E94122CB701A60188E037
:1058500090E0FF90EF90DF90CF900C9428318091F2
:10586000440780FF1EC0817082608093440780914E
:105870000707816080930707662351F06091440712
:105880007091450780914607909147070E941D2C13
:1058900020E04091470760914607809145070C94AE
:1058A000E22A0895809144078695815009F481E0A9
:1058B00061E00C942F2C61E081E00C942F2CE4E447
:1058C000F7E083E0808311828FEF828383831482E9
:1058D000A5E0B7E012968C911297836012968C9394
:1058E00060817181828193810C941D2C8D3E39F4ED
:1058F00090916A0797FF35C010926A0759C08E3E93
:1059000029F490916A071916BCF32BC0909169078E
:105910008F3E29F497FF25C01092690749C0803F48
:1059200019F41916CCF31DC090916B07893F29F427
:105930001916BCF410926B073BC08A3F19F497FF0D
:1059400010C0F8CF8B3F39F490916C0797FF09C0D6
:1059500010926C072DC08C3F21F490916C071916A2
:10596000BCF39FE0980F983080F421E030E0A9016B
:1059700002C0440F551F9A95E2F7CA018095909195
:10598000680789238093680713C08D3F21F48091B5
:1059900062078E7F0BC08E3F21F4809162078D7F5E
:1059A00005C08F3F29F4809162078B7F8093620747
:1059B00080916907811106C080916A07811102C038
:1059C0001092610780916B07811106C080916C076E
:1059D000811102C01092600708958091620780FDD6
:1059E00016C081FD16C082FD18C080916007882313
:1059F00091F0883290F428E0829FC001112468E27F
:105A000070E00E945631862F672B29F007C082E094
:105A1000089584E0089581E0089588E008958091D4
:105A2000620780FD14C081FD14C082FD16C0809104
:105A30006107882381F0843180F422E3829FC001D2
:105A4000112464E170E00E945631862F08958CE0A5
:105A5000089589E1089585E0089582E308958D3ED3
:105A600021F40E940F2D819504C08E3E29F40E94DE
:105A70000F2D80936A0708958F3E21F40E940F2D09
:105A8000819504C0803F29F40E940F2D80936907FF
:105A90000895893F19F40E94ED2C05C08A3F31F426
:105AA0000E94ED2C819580936B0708958B3F21F424
:105AB0000E94ED2C819504C08C3F29F40E94ED2CAE
:105AC00080936C0708959FE0980F983078F421E058
:105AD00030E0A90102C0440F551F9A95E2F7CA01B0
